{
  "contractName": "ContratoAuxiliar",
  "abi": [
    {
      "constant": true,
      "inputs": [
        {
          "name": "",
          "type": "uint256"
        }
      ],
      "name": "albumAlPropietario",
      "outputs": [
        {
          "name": "",
          "type": "address"
        }
      ],
      "payable": false,
      "stateMutability": "view",
      "type": "function"
    },
    {
      "constant": false,
      "inputs": [
        {
          "name": "_nombre",
          "type": "string"
        }
      ],
      "name": "_crearTarjetaAleatorio",
      "outputs": [],
      "payable": false,
      "stateMutability": "nonpayable",
      "type": "function"
    },
    {
      "constant": true,
      "inputs": [],
      "name": "owner",
      "outputs": [
        {
          "name": "",
          "type": "address"
        }
      ],
      "payable": false,
      "stateMutability": "view",
      "type": "function"
    },
    {
      "constant": true,
      "inputs": [
        {
          "name": "",
          "type": "uint256"
        }
      ],
      "name": "albumes",
      "outputs": [
        {
          "name": "nombre",
          "type": "string"
        },
        {
          "name": "randomAlbum",
          "type": "uint256"
        },
        {
          "name": "nivelAlbum",
          "type": "uint32"
        },
        {
          "name": "fechaEmision",
          "type": "uint256"
        }
      ],
      "payable": false,
      "stateMutability": "view",
      "type": "function"
    },
    {
      "constant": false,
      "inputs": [
        {
          "name": "_nombre",
          "type": "string"
        }
      ],
      "name": "_crearAlbumAleatorio",
      "outputs": [],
      "payable": false,
      "stateMutability": "nonpayable",
      "type": "function"
    },
    {
      "constant": true,
      "inputs": [
        {
          "name": "",
          "type": "uint256"
        }
      ],
      "name": "tarjetaAlPropietario",
      "outputs": [
        {
          "name": "",
          "type": "address"
        }
      ],
      "payable": false,
      "stateMutability": "view",
      "type": "function"
    },
    {
      "constant": false,
      "inputs": [
        {
          "name": "newOwner",
          "type": "address"
        }
      ],
      "name": "transferOwnership",
      "outputs": [],
      "payable": false,
      "stateMutability": "nonpayable",
      "type": "function"
    },
    {
      "constant": true,
      "inputs": [
        {
          "name": "",
          "type": "uint256"
        }
      ],
      "name": "tarjetas",
      "outputs": [
        {
          "name": "nombre",
          "type": "string"
        },
        {
          "name": "randomTarjeta",
          "type": "uint256"
        },
        {
          "name": "nivelTarjeta",
          "type": "uint32"
        },
        {
          "name": "fechaEmision",
          "type": "uint256"
        }
      ],
      "payable": false,
      "stateMutability": "view",
      "type": "function"
    },
    {
      "anonymous": false,
      "inputs": [
        {
          "indexed": false,
          "name": "albumId",
          "type": "uint256"
        },
        {
          "indexed": false,
          "name": "nombre",
          "type": "string"
        },
        {
          "indexed": false,
          "name": "randomAlbum",
          "type": "uint256"
        }
      ],
      "name": "NuevoAlbum",
      "type": "event"
    },
    {
      "anonymous": false,
      "inputs": [
        {
          "indexed": false,
          "name": "tarjetaId",
          "type": "uint256"
        },
        {
          "indexed": false,
          "name": "nombre",
          "type": "string"
        },
        {
          "indexed": false,
          "name": "randomTarjeta",
          "type": "uint256"
        }
      ],
      "name": "NuevaTarjeta",
      "type": "event"
    },
    {
      "anonymous": false,
      "inputs": [
        {
          "indexed": true,
          "name": "previousOwner",
          "type": "address"
        },
        {
          "indexed": true,
          "name": "newOwner",
          "type": "address"
        }
      ],
      "name": "OwnershipTransferred",
      "type": "event"
    },
    {
      "constant": false,
      "inputs": [
        {
          "name": "_comision",
          "type": "uint256"
        }
      ],
      "name": "setComision",
      "outputs": [],
      "payable": false,
      "stateMutability": "nonpayable",
      "type": "function"
    }
  ],
  "bytecode": "0x60806040526010600155600154600a0a6002556010600655600654600a0a60075566038d7ea4c68000600b55336000806101000a81548173ffffffffffffffffffffffffffffffffffffffff021916908373ffffffffffffffffffffffffffffffffffffffff1602179055506110638061007a6000396000f300608060405260043610610099576000357c0100000000000000000000000000000000000000000000000000000000900463ffffffff1680630b8bfee81461009e5780633478053e1461010b578063509c9e97146101745780638da5cb5b146101a1578063bc7a2230146101f8578063beec3a88146102bf578063ce4104b814610328578063f2fde38b14610395578063fd82b330146103d8575b600080fd5b3480156100aa57600080fd5b506100c96004803603810190808035906020019092919050505061049f565b604051808273ffffffffffffffffffffffffffffffffffffffff1673ffffffffffffffffffffffffffffffffffffffff16815260200191505060405180910390f35b34801561011757600080fd5b50610172600480360381019080803590602001908201803590602001908080601f01602080910402602001604051908101604052809392919081815260200183838082843782019150505050505091929192905050506104d2565b005b34801561018057600080fd5b5061019f6004803603810190808035906020019092919050505061054b565b005b3480156101ad57600080fd5b506101b66105b0565b604051808273ffffffffffffffffffffffffffffffffffffffff1673ffffffffffffffffffffffffffffffffffffffff16815260200191505060405180910390f35b34801561020457600080fd5b50610223600480360381019080803590602001909291905050506105d5565b60405180806020018581526020018463ffffffff1663ffffffff168152602001838152602001828103825286818151815260200191508051906020019080838360005b83811015610281578082015181840152602081019050610266565b50505050905090810190601f1680156102ae5780820380516001836020036101000a031916815260200191505b509550505050505060405180910390f35b3480156102cb57600080fd5b50610326600480360381019080803590602001908201803590602001908080601f01602080910402602001604051908101604052809392919081815260200183838082843782019150505050505091929192905050506106bc565b005b34801561033457600080fd5b5061035360048036038101908080359060200190929190505050610735565b604051808273ffffffffffffffffffffffffffffffffffffffff1673ffffffffffffffffffffffffffffffffffffffff16815260200191505060405180910390f35b3480156103a157600080fd5b506103d6600480360381019080803573ffffffffffffffffffffffffffffffffffffffff169060200190929190505050610768565b005b3480156103e457600080fd5b50610403600480360381019080803590602001909291905050506108bd565b60405180806020018581526020018463ffffffff1663ffffffff168152602001838152602001828103825286818151815260200191508051906020019080838360005b83811015610461578082015181840152602081019050610446565b50505050905090810190601f16801561048e5780820380516001836020036101000a031916815260200191505b509550505050505060405180910390f35b60096020528060005260406000206000915054906101000a900473ffffffffffffffffffffffffffffffffffffffff1681565b600080600560003373ffffffffffffffffffffffffffffffffffffffff1673ffffffffffffffffffffffffffffffffffffffff1681526020019081526020016000205414151561052157600080fd5b61052a826109a4565b905060648181151561053857fe5b06810390506105478282610a92565b5050565b6000809054906101000a900473ffffffffffffffffffffffffffffffffffffffff1673ffffffffffffffffffffffffffffffffffffffff163373ffffffffffffffffffffffffffffffffffffffff161415156105a657600080fd5b80600b8190555050565b6000809054906101000a900473ffffffffffffffffffffffffffffffffffffffff1681565b6008818154811015156105e457fe5b9060005260206000209060040201600091509050806000018054600181600116156101000203166002900480601f0160208091040260200160405190810160405280929190818152602001828054600181600116156101000203166002900480156106905780601f1061066557610100808354040283529160200191610690565b820191906000526020600020905b81548152906001019060200180831161067357829003601f168201915b5050505050908060010154908060020160009054906101000a900463ffffffff16908060030154905084565b600080600a60003373ffffffffffffffffffffffffffffffffffffffff1673ffffffffffffffffffffffffffffffffffffffff1681526020019081526020016000205414151561070b57600080fd5b61071482610c9b565b905060648181151561072257fe5b06810390506107318282610d89565b5050565b60046020528060005260406000206000915054906101000a900473ffffffffffffffffffffffffffffffffffffffff1681565b6000809054906101000a900473ffffffffffffffffffffffffffffffffffffffff1673ffffffffffffffffffffffffffffffffffffffff163373ffffffffffffffffffffffffffffffffffffffff161415156107c357600080fd5b600073ffffffffffffffffffffffffffffffffffffffff168173ffffffffffffffffffffffffffffffffffffffff16141515156107ff57600080fd5b8073ffffffffffffffffffffffffffffffffffffffff166000809054906101000a900473ffffffffffffffffffffffffffffffffffffffff1673ffffffffffffffffffffffffffffffffffffffff167f8be0079c531659141344cd1fd0a4f28419497f9722a3daafe3b4186f6b6457e060405160405180910390a3806000806101000a81548173ffffffffffffffffffffffffffffffffffffffff021916908373ffffffffffffffffffffffffffffffffffffffff16021790555050565b6003818154811015156108cc57fe5b9060005260206000209060040201600091509050806000018054600181600116156101000203166002900480601f0160208091040260200160405190810160405280929190818152602001828054600181600116156101000203166002900480156109785780601f1061094d57610100808354040283529160200191610978565b820191906000526020600020905b81548152906001019060200180831161095b57829003601f168201915b5050505050908060010154908060020160009054906101000a900463ffffffff16908060030154905084565b600080826040516020018082805190602001908083835b6020831015156109e057805182526020820191506020810190506020830392506109bb565b6001836020036101000a0380198251168184511680821785525050505050509050019150506040516020818303038152906040526040518082805190602001908083835b602083101515610a495780518252602082019150602081019050602083039250610a24565b6001836020036101000a038019825116818451168082178552505050505050905001915050604051809103902060019004905060025481811515610a8957fe5b06915050919050565b600060016003608060405190810160405280868152602001858152602001600163ffffffff16815260200142815250908060018154018082558091505090600182039060005260206000209060040201600090919290919091506000820151816000019080519060200190610b08929190610f92565b506020820151816001015560408201518160020160006101000a81548163ffffffff021916908363ffffffff160217905550606082015181600301555050039050336004600083815260200190815260200160002060006101000a81548173ffffffffffffffffffffffffffffffffffffffff021916908373ffffffffffffffffffffffffffffffffffffffff160217905550600560003373ffffffffffffffffffffffffffffffffffffffff1673ffffffffffffffffffffffffffffffffffffffff168152602001908152602001600020600081548092919060010191905055507f8badb79e2b16dddd1421d343d55abc7770e276bb1e88dc62b540404cb48de5e38184846040518084815260200180602001838152602001828103825284818151815260200191508051906020019080838360005b83811015610c5a578082015181840152602081019050610c3f565b50505050905090810190601f168015610c875780820380516001836020036101000a031916815260200191505b5094505050505060405180910390a1505050565b600080826040516020018082805190602001908083835b602083101515610cd75780518252602082019150602081019050602083039250610cb2565b6001836020036101000a0380198251168184511680821785525050505050509050019150506040516020818303038152906040526040518082805190602001908083835b602083101515610d405780518252602082019150602081019050602083039250610d1b565b6001836020036101000a038019825116818451168082178552505050505050905001915050604051809103902060019004905060075481811515610d8057fe5b06915050919050565b600060016008608060405190810160405280868152602001858152602001600163ffffffff16815260200142815250908060018154018082558091505090600182039060005260206000209060040201600090919290919091506000820151816000019080519060200190610dff929190610f92565b506020820151816001015560408201518160020160006101000a81548163ffffffff021916908363ffffffff160217905550606082015181600301555050039050336009600083815260200190815260200160002060006101000a81548173ffffffffffffffffffffffffffffffffffffffff021916908373ffffffffffffffffffffffffffffffffffffffff160217905550600a60003373ffffffffffffffffffffffffffffffffffffffff1673ffffffffffffffffffffffffffffffffffffffff168152602001908152602001600020600081548092919060010191905055507ffaaad2afe7e449b8027cfe543bc62c46e132059448a8af389ef1f814070a1e758184846040518084815260200180602001838152602001828103825284818151815260200191508051906020019080838360005b83811015610f51578082015181840152602081019050610f36565b50505050905090810190601f168015610f7e5780820380516001836020036101000a031916815260200191505b5094505050505060405180910390a1505050565b828054600181600116156101000203166002900490600052602060002090601f016020900481019282601f10610fd357805160ff1916838001178555611001565b82800160010185558215611001579182015b82811115611000578251825591602001919060010190610fe5565b5b50905061100e9190611012565b5090565b61103491905b80821115611030576000816000905550600101611018565b5090565b905600a165627a7a723058203433173a4b63ff9113051a457069b56c1d66734d1e0ef1bbdaf370dd62011bd20029",
  "source": "pragma solidity ^0.4.24;\n\nimport \"./generartarjeta.sol\";\nimport \"./generaralbum.sol\";\nimport \"./safemath.sol\";\n\ncontract ContratoAuxiliar is GenerarTarjeta, GenerarAlbum {\n\n  using SafeMath for uint256;\n\n  uint comision = 0.001 ether;\n\n  function setComision(uint _comision) external onlyOwner {\n    comision = _comision;\n  }\n\n  modifier subirLevelTarjeta(uint _nivelTarjeta, uint _tarjetaId) {\n    require(tarjetas[_tarjetaId].nivelTarjeta >= _nivelTarjeta);\n    _;\n  }\n\n  modifier onlyOwnerOfTarjeta(uint _tarjetaId) {\n    require(msg.sender == tarjetaAlPropietario[_tarjetaId]);\n    _;\n  }\n\n  modifier onlyOwnerOfAlbum(uint _albumId) {\n    require(msg.sender == albumAlPropietario[_albumId]);\n    _;\n  }\n}\n",
  "sourcePath": "/home/jacg/Github-tanogedler/coleccion-tarjetas/contracts/contratoauxiliar.sol",
  "compiler": {
    "name": "solc",
    "version": "0.4.24+commit.e67f0147.Emscripten.clang"
  },
  "schemaVersion": "2.0.1",
  "updatedAt": "2018-08-28T12:40:51.303Z"
}