{
  "contractName": "GenerarTarjeta",
  "abi": [
    {
      "constant": true,
      "inputs": [],
      "name": "owner",
      "outputs": [
        {
          "name": "",
          "type": "address"
        }
      ],
      "payable": false,
      "stateMutability": "view",
      "type": "function"
    },
    {
      "constant": true,
      "inputs": [
        {
          "name": "",
          "type": "uint256"
        }
      ],
      "name": "tarjetaAlPropietario",
      "outputs": [
        {
          "name": "",
          "type": "address"
        }
      ],
      "payable": false,
      "stateMutability": "view",
      "type": "function"
    },
    {
      "constant": false,
      "inputs": [
        {
          "name": "newOwner",
          "type": "address"
        }
      ],
      "name": "transferOwnership",
      "outputs": [],
      "payable": false,
      "stateMutability": "nonpayable",
      "type": "function"
    },
    {
      "constant": true,
      "inputs": [
        {
          "name": "",
          "type": "uint256"
        }
      ],
      "name": "tarjetas",
      "outputs": [
        {
          "name": "nombre",
          "type": "string"
        },
        {
          "name": "randomTarjeta",
          "type": "uint256"
        },
        {
          "name": "nivelTarjeta",
          "type": "uint32"
        },
        {
          "name": "fechaEmision",
          "type": "uint256"
        }
      ],
      "payable": false,
      "stateMutability": "view",
      "type": "function"
    },
    {
      "anonymous": false,
      "inputs": [
        {
          "indexed": false,
          "name": "tarjetaId",
          "type": "uint256"
        },
        {
          "indexed": false,
          "name": "nombre",
          "type": "string"
        },
        {
          "indexed": false,
          "name": "randomTarjeta",
          "type": "uint256"
        }
      ],
      "name": "NuevaTarjeta",
      "type": "event"
    },
    {
      "anonymous": false,
      "inputs": [
        {
          "indexed": true,
          "name": "previousOwner",
          "type": "address"
        },
        {
          "indexed": true,
          "name": "newOwner",
          "type": "address"
        }
      ],
      "name": "OwnershipTransferred",
      "type": "event"
    },
    {
      "constant": false,
      "inputs": [
        {
          "name": "_nombre",
          "type": "string"
        }
      ],
      "name": "_crearTarjetaAleatorio",
      "outputs": [],
      "payable": false,
      "stateMutability": "nonpayable",
      "type": "function"
    }
  ],
  "bytecode": "0x60806040526010600155600154600a0a600255336000806101000a81548173ffffffffffffffffffffffffffffffffffffffff021916908373ffffffffffffffffffffffffffffffffffffffff16021790555061097e806100616000396000f30060806040526004361061006d576000357c0100000000000000000000000000000000000000000000000000000000900463ffffffff1680633478053e146100725780638da5cb5b146100db578063ce4104b814610132578063f2fde38b1461019f578063fd82b330146101e2575b600080fd5b34801561007e57600080fd5b506100d9600480360381019080803590602001908201803590602001908080601f01602080910402602001604051908101604052809392919081815260200183838082843782019150505050505091929192905050506102a9565b005b3480156100e757600080fd5b506100f0610322565b604051808273ffffffffffffffffffffffffffffffffffffffff1673ffffffffffffffffffffffffffffffffffffffff16815260200191505060405180910390f35b34801561013e57600080fd5b5061015d60048036038101908080359060200190929190505050610347565b604051808273ffffffffffffffffffffffffffffffffffffffff1673ffffffffffffffffffffffffffffffffffffffff16815260200191505060405180910390f35b3480156101ab57600080fd5b506101e0600480360381019080803573ffffffffffffffffffffffffffffffffffffffff16906020019092919050505061037a565b005b3480156101ee57600080fd5b5061020d600480360381019080803590602001909291905050506104cf565b60405180806020018581526020018463ffffffff1663ffffffff168152602001838152602001828103825286818151815260200191508051906020019080838360005b8381101561026b578082015181840152602081019050610250565b50505050905090810190601f1680156102985780820380516001836020036101000a031916815260200191505b509550505050505060405180910390f35b600080600560003373ffffffffffffffffffffffffffffffffffffffff1673ffffffffffffffffffffffffffffffffffffffff168152602001908152602001600020541415156102f857600080fd5b610301826105b6565b905060648181151561030f57fe5b068103905061031e82826106a4565b5050565b6000809054906101000a900473ffffffffffffffffffffffffffffffffffffffff1681565b60046020528060005260406000206000915054906101000a900473ffffffffffffffffffffffffffffffffffffffff1681565b6000809054906101000a900473ffffffffffffffffffffffffffffffffffffffff1673ffffffffffffffffffffffffffffffffffffffff163373ffffffffffffffffffffffffffffffffffffffff161415156103d557600080fd5b600073ffffffffffffffffffffffffffffffffffffffff168173ffffffffffffffffffffffffffffffffffffffff161415151561041157600080fd5b8073ffffffffffffffffffffffffffffffffffffffff166000809054906101000a900473ffffffffffffffffffffffffffffffffffffffff1673ffffffffffffffffffffffffffffffffffffffff167f8be0079c531659141344cd1fd0a4f28419497f9722a3daafe3b4186f6b6457e060405160405180910390a3806000806101000a81548173ffffffffffffffffffffffffffffffffffffffff021916908373ffffffffffffffffffffffffffffffffffffffff16021790555050565b6003818154811015156104de57fe5b9060005260206000209060040201600091509050806000018054600181600116156101000203166002900480601f01602080910402602001604051908101604052809291908181526020018280546001816001161561010002031660029004801561058a5780601f1061055f5761010080835404028352916020019161058a565b820191906000526020600020905b81548152906001019060200180831161056d57829003601f168201915b5050505050908060010154908060020160009054906101000a900463ffffffff16908060030154905084565b600080826040516020018082805190602001908083835b6020831015156105f257805182526020820191506020810190506020830392506105cd565b6001836020036101000a0380198251168184511680821785525050505050509050019150506040516020818303038152906040526040518082805190602001908083835b60208310151561065b5780518252602082019150602081019050602083039250610636565b6001836020036101000a03801982511681845116808217855250505050505090500191505060405180910390206001900490506002548181151561069b57fe5b06915050919050565b600060016003608060405190810160405280868152602001858152602001600163ffffffff1681526020014281525090806001815401808255809150509060018203906000526020600020906004020160009091929091909150600082015181600001908051906020019061071a9291906108ad565b506020820151816001015560408201518160020160006101000a81548163ffffffff021916908363ffffffff160217905550606082015181600301555050039050336004600083815260200190815260200160002060006101000a81548173ffffffffffffffffffffffffffffffffffffffff021916908373ffffffffffffffffffffffffffffffffffffffff160217905550600560003373ffffffffffffffffffffffffffffffffffffffff1673ffffffffffffffffffffffffffffffffffffffff168152602001908152602001600020600081548092919060010191905055507f8badb79e2b16dddd1421d343d55abc7770e276bb1e88dc62b540404cb48de5e38184846040518084815260200180602001838152602001828103825284818151815260200191508051906020019080838360005b8381101561086c578082015181840152602081019050610851565b50505050905090810190601f1680156108995780820380516001836020036101000a031916815260200191505b5094505050505060405180910390a1505050565b828054600181600116156101000203166002900490600052602060002090601f016020900481019282601f106108ee57805160ff191683800117855561091c565b8280016001018555821561091c579182015b8281111561091b578251825591602001919060010190610900565b5b509050610929919061092d565b5090565b61094f91905b8082111561094b576000816000905550600101610933565b5090565b905600a165627a7a72305820bb27a7d2b96113707d3be29f356d3514eca256544e39a2df7c5bd59abd4975f70029",
  "source": "pragma solidity ^0.4.24;\n\nimport \"./ownable.sol\";\nimport \"./safemath.sol\";\n\ncontract GenerarTarjeta is Ownable {\n\n// Usaremos la librería SafeMath\n  using SafeMath for uint256;\n\n  event NuevaTarjeta(uint tarjetaId, string nombre, uint randomTarjeta);\n  \n  uint digitosRandom = 16;\n  uint modulo = 10 ** digitosRandom;\n\n// Estructura de una tarjeta \n  struct Tarjeta {\n    string nombre;\n    uint randomTarjeta;\n    uint32 nivelTarjeta;\n    uint fechaEmision;\n  }\n\n  Tarjeta[] public tarjetas;\n\n  mapping (uint => address) public tarjetaAlPropietario;\n  mapping (address => uint) contadorTarjetaPropietario;\n\n  function _crearTarjeta(string _nombre, uint _randomTarjeta) internal {\n    uint id = tarjetas.push(Tarjeta(_nombre, _randomTarjeta, 1, now)) - 1;\n    tarjetaAlPropietario[id] = msg.sender;\n    contadorTarjetaPropietario[msg.sender]++;\n    emit NuevaTarjeta(id, _nombre, _randomTarjeta);\n  }\n\n  function _generaValorRandomTarjeta (string _str) private view returns (uint) {\n    uint rand = uint(keccak256(abi.encodePacked(_str)));\n    return rand % modulo;\n  }\n\n  function _crearTarjetaAleatorio(string _nombre) public {\n    require(contadorTarjetaPropietario[msg.sender] == 0);\n    uint randValor = _generaValorRandomTarjeta(_nombre);\n    randValor = randValor - randValor % 100;\n    _crearTarjeta(_nombre, randValor);\n  }\n}",
  "sourcePath": "/home/jacg/Github-tanogedler/coleccion-tarjetas/contracts/generartarjeta.sol",
  "compiler": {
    "name": "solc",
    "version": "0.4.24+commit.e67f0147.Emscripten.clang"
  },
  "schemaVersion": "2.0.1",
  "updatedAt": "2018-08-28T12:40:51.311Z"
}