{
  "contractName": "GenerarAlbum",
  "abi": [
    {
      "constant": false,
      "inputs": [
        {
          "name": "nuevoPropietario",
          "type": "address"
        }
      ],
      "name": "transferirPropiedad",
      "outputs": [],
      "payable": false,
      "stateMutability": "nonpayable",
      "type": "function"
    },
    {
      "constant": true,
      "inputs": [
        {
          "name": "",
          "type": "uint256"
        }
      ],
      "name": "albumAlPropietario",
      "outputs": [
        {
          "name": "",
          "type": "address"
        }
      ],
      "payable": false,
      "stateMutability": "view",
      "type": "function"
    },
    {
      "constant": true,
      "inputs": [],
      "name": "propietario",
      "outputs": [
        {
          "name": "",
          "type": "address"
        }
      ],
      "payable": false,
      "stateMutability": "view",
      "type": "function"
    },
    {
      "constant": false,
      "inputs": [],
      "name": "Poseible",
      "outputs": [],
      "payable": false,
      "stateMutability": "nonpayable",
      "type": "function"
    },
    {
      "constant": true,
      "inputs": [
        {
          "name": "",
          "type": "uint256"
        }
      ],
      "name": "albumes",
      "outputs": [
        {
          "name": "nombre",
          "type": "string"
        },
        {
          "name": "direccionAlbum",
          "type": "address"
        },
        {
          "name": "fechaEmision",
          "type": "uint32"
        }
      ],
      "payable": false,
      "stateMutability": "view",
      "type": "function"
    },
    {
      "anonymous": false,
      "inputs": [
        {
          "indexed": false,
          "name": "IdAlbum",
          "type": "uint256"
        },
        {
          "indexed": false,
          "name": "nombre",
          "type": "string"
        },
        {
          "indexed": false,
          "name": "direccionAlbum",
          "type": "address"
        }
      ],
      "name": "NuevoAlbum",
      "type": "event"
    },
    {
      "anonymous": false,
      "inputs": [
        {
          "indexed": true,
          "name": "anteriorPropietario",
          "type": "address"
        },
        {
          "indexed": true,
          "name": "nuevoPropietario",
          "type": "address"
        }
      ],
      "name": "PertenenciaTransferida",
      "type": "event"
    }
  ],
  "bytecode": "0x6060604052341561000f57600080fd5b6105758061001e6000396000f30060606040526004361061006c576000357c0100000000000000000000000000000000000000000000000000000000900463ffffffff1680629a458a146100715780630b8bfee8146100aa5780633c4f81cd1461010d57806384e7d41d14610162578063bc7a223014610177575b600080fd5b341561007c57600080fd5b6100a8600480803573ffffffffffffffffffffffffffffffffffffffff16906020019091905050610259565b005b34156100b557600080fd5b6100cb60048080359060200190919050506103ae565b604051808273ffffffffffffffffffffffffffffffffffffffff1673ffffffffffffffffffffffffffffffffffffffff16815260200191505060405180910390f35b341561011857600080fd5b6101206103e1565b604051808273ffffffffffffffffffffffffffffffffffffffff1673ffffffffffffffffffffffffffffffffffffffff16815260200191505060405180910390f35b341561016d57600080fd5b610175610406565b005b341561018257600080fd5b6101986004808035906020019091905050610448565b60405180806020018473ffffffffffffffffffffffffffffffffffffffff1673ffffffffffffffffffffffffffffffffffffffff1681526020018363ffffffff1663ffffffff168152602001828103825285818151815260200191508051906020019080838360005b8381101561021c578082015181840152602081019050610201565b50505050905090810190601f1680156102495780820380516001836020036101000a031916815260200191505b5094505050505060405180910390f35b6000809054906101000a900473ffffffffffffffffffffffffffffffffffffffff1673ffffffffffffffffffffffffffffffffffffffff163373ffffffffffffffffffffffffffffffffffffffff161415156102b457600080fd5b600073ffffffffffffffffffffffffffffffffffffffff168173ffffffffffffffffffffffffffffffffffffffff16141515156102f057600080fd5b8073ffffffffffffffffffffffffffffffffffffffff166000809054906101000a900473ffffffffffffffffffffffffffffffffffffffff1673ffffffffffffffffffffffffffffffffffffffff167f359e263445ee3899ed3f945e6bd38aaf60ccd68c44eacfb5568fdc5d4db0f7e360405160405180910390a3806000806101000a81548173ffffffffffffffffffffffffffffffffffffffff021916908373ffffffffffffffffffffffffffffffffffffffff16021790555050565b60026020528060005260406000206000915054906101000a900473ffffffffffffffffffffffffffffffffffffffff1681565b6000809054906101000a900473ffffffffffffffffffffffffffffffffffffffff1681565b336000806101000a81548173ffffffffffffffffffffffffffffffffffffffff021916908373ffffffffffffffffffffffffffffffffffffffff160217905550565b60018181548110151561045757fe5b9060005260206000209060020201600091509050806000018054600181600116156101000203166002900480601f0160208091040260200160405190810160405280929190818152602001828054600181600116156101000203166002900480156105035780601f106104d857610100808354040283529160200191610503565b820191906000526020600020905b8154815290600101906020018083116104e657829003601f168201915b5050505050908060010160009054906101000a900473ffffffffffffffffffffffffffffffffffffffff16908060010160149054906101000a900463ffffffff169050835600a165627a7a723058205494daa2baedccf7b579fe59577f2f21edf4e84807756898d4af09eb3458d0ee0029",
  "source": "pragma solidity ^0.4.19;\n\nimport \"./pertenencia.sol\";\nimport \"./safemath.sol\";\n\ncontract GenerarAlbum is Pertenencia {\n// Usaremos la librería SafeMath\n  using SafeMath for uint256;\n\n  event NuevoAlbum(uint IdAlbum, string nombre, address direccionAlbum);\n\n// Estructura de un album. \n  struct Album {\n    string nombre;\n    address direccionAlbum;\n    uint32 fechaEmision;\n  }\n\n  Album[] public albumes;\n\n  mapping (uint => address) public albumAlPropietario;\n  mapping (address => uint) contadorAlbumDelPropietario;\n\n  function _crearAlbum(string _nombre, address _direccionAlbum, uint32 _fecha) internal {\n    uint id = albumes.push(Album(_nombre, _direccionAlbum, _fecha)) - 1;\n    albumAlPropietario[id] = msg.sender;\n    contadorAlbumDelPropietario[msg.sender]++;\n    NuevoAlbum(id, _nombre, _direccionAlbum);\n  }\n\n}",
  "sourcePath": "/home/jacg/Escritorio/BlockChain/coleccion-tarjetas/coleccion-tarjetas/contracts/generaralbum.sol",
  "compiler": {
    "name": "solc",
    "version": "0.4.21+commit.dfe3193c.Emscripten.clang"
  },
  "schemaVersion": "2.0.0",
  "updatedAt": "2018-04-20T12:08:23.673Z"
}