{
  "contractName": "GenerarTarjeta",
  "abi": [
    {
      "constant": false,
      "inputs": [
        {
          "name": "nuevoPropietario",
          "type": "address"
        }
      ],
      "name": "transferirPropiedad",
      "outputs": [],
      "payable": false,
      "stateMutability": "nonpayable",
      "type": "function"
    },
    {
      "constant": true,
      "inputs": [],
      "name": "propietario",
      "outputs": [
        {
          "name": "",
          "type": "address"
        }
      ],
      "payable": false,
      "stateMutability": "view",
      "type": "function"
    },
    {
      "constant": false,
      "inputs": [],
      "name": "Poseible",
      "outputs": [],
      "payable": false,
      "stateMutability": "nonpayable",
      "type": "function"
    },
    {
      "constant": true,
      "inputs": [
        {
          "name": "",
          "type": "uint256"
        }
      ],
      "name": "tarjetaAlPropietario",
      "outputs": [
        {
          "name": "",
          "type": "address"
        }
      ],
      "payable": false,
      "stateMutability": "view",
      "type": "function"
    },
    {
      "constant": true,
      "inputs": [
        {
          "name": "",
          "type": "uint256"
        }
      ],
      "name": "tarjetas",
      "outputs": [
        {
          "name": "nombre",
          "type": "string"
        },
        {
          "name": "direccionImagen",
          "type": "address"
        },
        {
          "name": "nivel",
          "type": "uint32"
        },
        {
          "name": "copias",
          "type": "uint32"
        },
        {
          "name": "fechaEmision",
          "type": "uint32"
        }
      ],
      "payable": false,
      "stateMutability": "view",
      "type": "function"
    },
    {
      "anonymous": false,
      "inputs": [
        {
          "indexed": false,
          "name": "IdTarjeta",
          "type": "uint256"
        },
        {
          "indexed": false,
          "name": "nombre",
          "type": "string"
        },
        {
          "indexed": false,
          "name": "direccionImagen",
          "type": "address"
        }
      ],
      "name": "NuevaTarjeta",
      "type": "event"
    },
    {
      "anonymous": false,
      "inputs": [
        {
          "indexed": true,
          "name": "anteriorPropietario",
          "type": "address"
        },
        {
          "indexed": true,
          "name": "nuevoPropietario",
          "type": "address"
        }
      ],
      "name": "PertenenciaTransferida",
      "type": "event"
    }
  ],
  "bytecode": "0x6060604052341561000f57600080fd5b6105c78061001e6000396000f30060606040526004361061006c576000357c0100000000000000000000000000000000000000000000000000000000900463ffffffff1680629a458a146100715780633c4f81cd146100aa57806384e7d41d146100ff578063ce4104b814610114578063fd82b33014610177575b600080fd5b341561007c57600080fd5b6100a8600480803573ffffffffffffffffffffffffffffffffffffffff1690602001909190505061027f565b005b34156100b557600080fd5b6100bd6103d4565b604051808273ffffffffffffffffffffffffffffffffffffffff1673ffffffffffffffffffffffffffffffffffffffff16815260200191505060405180910390f35b341561010a57600080fd5b6101126103f9565b005b341561011f57600080fd5b610135600480803590602001909190505061043b565b604051808273ffffffffffffffffffffffffffffffffffffffff1673ffffffffffffffffffffffffffffffffffffffff16815260200191505060405180910390f35b341561018257600080fd5b610198600480803590602001909190505061046e565b60405180806020018673ffffffffffffffffffffffffffffffffffffffff1673ffffffffffffffffffffffffffffffffffffffff1681526020018563ffffffff1663ffffffff1681526020018463ffffffff1663ffffffff1681526020018363ffffffff1663ffffffff168152602001828103825287818151815260200191508051906020019080838360005b83811015610240578082015181840152602081019050610225565b50505050905090810190601f16801561026d5780820380516001836020036101000a031916815260200191505b50965050505050505060405180910390f35b6000809054906101000a900473ffffffffffffffffffffffffffffffffffffffff1673ffffffffffffffffffffffffffffffffffffffff163373ffffffffffffffffffffffffffffffffffffffff161415156102da57600080fd5b600073ffffffffffffffffffffffffffffffffffffffff168173ffffffffffffffffffffffffffffffffffffffff161415151561031657600080fd5b8073ffffffffffffffffffffffffffffffffffffffff166000809054906101000a900473ffffffffffffffffffffffffffffffffffffffff1673ffffffffffffffffffffffffffffffffffffffff167f359e263445ee3899ed3f945e6bd38aaf60ccd68c44eacfb5568fdc5d4db0f7e360405160405180910390a3806000806101000a81548173ffffffffffffffffffffffffffffffffffffffff021916908373ffffffffffffffffffffffffffffffffffffffff16021790555050565b6000809054906101000a900473ffffffffffffffffffffffffffffffffffffffff1681565b336000806101000a81548173ffffffffffffffffffffffffffffffffffffffff021916908373ffffffffffffffffffffffffffffffffffffffff160217905550565b60026020528060005260406000206000915054906101000a900473ffffffffffffffffffffffffffffffffffffffff1681565b60018181548110151561047d57fe5b9060005260206000209060020201600091509050806000018054600181600116156101000203166002900480601f0160208091040260200160405190810160405280929190818152602001828054600181600116156101000203166002900480156105295780601f106104fe57610100808354040283529160200191610529565b820191906000526020600020905b81548152906001019060200180831161050c57829003601f168201915b5050505050908060010160009054906101000a900473ffffffffffffffffffffffffffffffffffffffff16908060010160149054906101000a900463ffffffff16908060010160189054906101000a900463ffffffff169080600101601c9054906101000a900463ffffffff169050855600a165627a7a7230582009205dbb7ec49c380fe9b19155ea910343f3a645f94303c9ddcd26daac29e67f0029",
  "source": "pragma solidity ^0.4.19;\n\nimport \"./pertenencia.sol\";\nimport \"./safemath.sol\";\n\ncontract GenerarTarjeta is Pertenencia {\n\n// Usaremos la librería SafeMath\n  using SafeMath for uint256;\n\n  event NuevaTarjeta(uint IdTarjeta, string nombre, address direccionImagen);\n\n// Estructura de una tarjeta. \n  struct Tarjeta {\n    string nombre;\n    address direccionImagen;\n    uint32 nivel;\n    uint32 copias;\n    uint32 fechaEmision;\n  }\n\n  Tarjeta[] public tarjetas;\n\n  mapping (uint => address) public tarjetaAlPropietario;\n  mapping (address => uint) contadorTarjetasDelPropietario;\n\n  function _crearTarjeta(string _name, address _direccionImagen) internal {\n    uint id = tarjetas.push(Tarjeta(_name, _direccionImagen, 0, 1, 0)) - 1;\n    tarjetaAlPropietario[id] = msg.sender;\n    contadorTarjetasDelPropietario[msg.sender]++;\n    NuevaTarjeta(id, _name, _direccionImagen);\n  }\n\n}",
  "sourcePath": "/home/jacg/Escritorio/BlockChain/coleccion-tarjetas/coleccion-tarjetas/contracts/generartarjeta.sol",
  "compiler": {
    "name": "solc",
    "version": "0.4.21+commit.dfe3193c.Emscripten.clang"
  },
  "schemaVersion": "2.0.0",
  "updatedAt": "2018-04-20T12:08:23.673Z"
}