{
  "contractName": "GenerarTarjeta",
  "abi": [
    {
      "constant": true,
      "inputs": [],
      "name": "owner",
      "outputs": [
        {
          "name": "",
          "type": "address"
        }
      ],
      "payable": false,
      "stateMutability": "view",
      "type": "function"
    },
    {
      "constant": true,
      "inputs": [
        {
          "name": "",
          "type": "uint256"
        }
      ],
      "name": "tarjetaAlPropietario",
      "outputs": [
        {
          "name": "",
          "type": "address"
        }
      ],
      "payable": false,
      "stateMutability": "view",
      "type": "function"
    },
    {
      "constant": false,
      "inputs": [
        {
          "name": "newOwner",
          "type": "address"
        }
      ],
      "name": "transferOwnership",
      "outputs": [],
      "payable": false,
      "stateMutability": "nonpayable",
      "type": "function"
    },
    {
      "constant": true,
      "inputs": [
        {
          "name": "",
          "type": "uint256"
        }
      ],
      "name": "tarjetas",
      "outputs": [
        {
          "name": "nombre",
          "type": "string"
        },
        {
          "name": "randomTarjeta",
          "type": "uint256"
        },
        {
          "name": "nivelTarjeta",
          "type": "uint32"
        },
        {
          "name": "fechaEmision",
          "type": "uint256"
        }
      ],
      "payable": false,
      "stateMutability": "view",
      "type": "function"
    },
    {
      "anonymous": false,
      "inputs": [
        {
          "indexed": false,
          "name": "tarjetaId",
          "type": "uint256"
        },
        {
          "indexed": false,
          "name": "nombre",
          "type": "string"
        },
        {
          "indexed": false,
          "name": "randomTarjeta",
          "type": "uint256"
        }
      ],
      "name": "NuevaTarjeta",
      "type": "event"
    },
    {
      "anonymous": false,
      "inputs": [
        {
          "indexed": true,
          "name": "previousOwner",
          "type": "address"
        },
        {
          "indexed": true,
          "name": "newOwner",
          "type": "address"
        }
      ],
      "name": "OwnershipTransferred",
      "type": "event"
    },
    {
      "constant": false,
      "inputs": [
        {
          "name": "_nombre",
          "type": "string"
        }
      ],
      "name": "_crearTarjetaAleatorio",
      "outputs": [],
      "payable": false,
      "stateMutability": "nonpayable",
      "type": "function"
    }
  ],
  "bytecode": "0x60606040526010600155600154600a0a600255336000806101000a81548173ffffffffffffffffffffffffffffffffffffffff021916908373ffffffffffffffffffffffffffffffffffffffff1602179055506109b2806100616000396000f30060606040526004361061006d576000357c0100000000000000000000000000000000000000000000000000000000900463ffffffff1680633478053e146100725780638da5cb5b146100cf578063ce4104b814610124578063f2fde38b14610187578063fd82b330146101c0575b600080fd5b341561007d57600080fd5b6100cd600480803590602001908201803590602001908080601f0160208091040260200160405190810160405280939291908181526020018383808284378201915050505050509190505061027d565b005b34156100da57600080fd5b6100e26102f6565b604051808273ffffffffffffffffffffffffffffffffffffffff1673ffffffffffffffffffffffffffffffffffffffff16815260200191505060405180910390f35b341561012f57600080fd5b610145600480803590602001909190505061031b565b604051808273ffffffffffffffffffffffffffffffffffffffff1673ffffffffffffffffffffffffffffffffffffffff16815260200191505060405180910390f35b341561019257600080fd5b6101be600480803573ffffffffffffffffffffffffffffffffffffffff1690602001909190505061034e565b005b34156101cb57600080fd5b6101e160048080359060200190919050506104a3565b60405180806020018581526020018463ffffffff1663ffffffff168152602001838152602001828103825286818151815260200191508051906020019080838360005b8381101561023f578082015181840152602081019050610224565b50505050905090810190601f16801561026c5780820380516001836020036101000a031916815260200191505b509550505050505060405180910390f35b600080600560003373ffffffffffffffffffffffffffffffffffffffff1673ffffffffffffffffffffffffffffffffffffffff168152602001908152602001600020541415156102cc57600080fd5b6102d58261058a565b90506064818115156102e357fe5b06810390506102f2828261060c565b5050565b6000809054906101000a900473ffffffffffffffffffffffffffffffffffffffff1681565b60046020528060005260406000206000915054906101000a900473ffffffffffffffffffffffffffffffffffffffff1681565b6000809054906101000a900473ffffffffffffffffffffffffffffffffffffffff1673ffffffffffffffffffffffffffffffffffffffff163373ffffffffffffffffffffffffffffffffffffffff161415156103a957600080fd5b600073ffffffffffffffffffffffffffffffffffffffff168173ffffffffffffffffffffffffffffffffffffffff16141515156103e557600080fd5b8073ffffffffffffffffffffffffffffffffffffffff166000809054906101000a900473ffffffffffffffffffffffffffffffffffffffff1673ffffffffffffffffffffffffffffffffffffffff167f8be0079c531659141344cd1fd0a4f28419497f9722a3daafe3b4186f6b6457e060405160405180910390a3806000806101000a81548173ffffffffffffffffffffffffffffffffffffffff021916908373ffffffffffffffffffffffffffffffffffffffff16021790555050565b6003818154811015156104b257fe5b9060005260206000209060040201600091509050806000018054600181600116156101000203166002900480601f01602080910402602001604051908101604052809291908181526020018280546001816001161561010002031660029004801561055e5780601f106105335761010080835404028352916020019161055e565b820191906000526020600020905b81548152906001019060200180831161054157829003601f168201915b5050505050908060010154908060020160009054906101000a900463ffffffff16908060030154905084565b600080826040518082805190602001908083835b6020831015156105c3578051825260208201915060208101905060208303925061059e565b6001836020036101000a03801982511681845116808217855250505050505090500191505060405180910390206001900490506002548181151561060357fe5b06915050919050565b60006001600380548060010182816106249190610811565b91600052602060002090600402016000608060405190810160405280888152602001878152602001600163ffffffff168152602001428152509091909150600082015181600001908051906020019061067e929190610843565b506020820151816001015560408201518160020160006101000a81548163ffffffff021916908363ffffffff160217905550606082015181600301555050039050336004600083815260200190815260200160002060006101000a81548173ffffffffffffffffffffffffffffffffffffffff021916908373ffffffffffffffffffffffffffffffffffffffff160217905550600560003373ffffffffffffffffffffffffffffffffffffffff1673ffffffffffffffffffffffffffffffffffffffff168152602001908152602001600020600081548092919060010191905055507f8badb79e2b16dddd1421d343d55abc7770e276bb1e88dc62b540404cb48de5e38184846040518084815260200180602001838152602001828103825284818151815260200191508051906020019080838360005b838110156107d05780820151818401526020810190506107b5565b50505050905090810190601f1680156107fd5780820380516001836020036101000a031916815260200191505b5094505050505060405180910390a1505050565b81548183558181151161083e5760040281600402836000526020600020918201910161083d91906108c3565b5b505050565b828054600181600116156101000203166002900490600052602060002090601f016020900481019282601f1061088457805160ff19168380011785556108b2565b828001600101855582156108b2579182015b828111156108b1578251825591602001919060010190610896565b5b5090506108bf9190610919565b5090565b61091691905b8082111561091257600080820160006108e2919061093e565b60018201600090556002820160006101000a81549063ffffffff02191690556003820160009055506004016108c9565b5090565b90565b61093b91905b8082111561093757600081600090555060010161091f565b5090565b90565b50805460018160011615610100020316600290046000825580601f106109645750610983565b601f0160209004906000526020600020908101906109829190610919565b5b505600a165627a7a7230582033ec8311eff2ba742a9e36afefd5369e16ad774ee2ecbd7ae5c6eaee8057cf1b0029",
  "source": "pragma solidity ^0.4.19;\n\nimport \"./ownable.sol\";\nimport \"./safemath.sol\";\n\ncontract GenerarTarjeta is Ownable {\n\n// Usaremos la librería SafeMath\n  using SafeMath for uint256;\n\n  event NuevaTarjeta(uint tarjetaId, string nombre, uint randomTarjeta);\n  \n  uint digitosRandom = 16;\n  uint modulo = 10 ** digitosRandom;\n\n// Estructura de una tarjeta \n  struct Tarjeta {\n    string nombre;\n    uint randomTarjeta;\n    uint32 nivelTarjeta;\n    uint fechaEmision;\n  }\n\n  Tarjeta[] public tarjetas;\n\n  mapping (uint => address) public tarjetaAlPropietario;\n  mapping (address => uint) contadorTarjetaPropietario;\n\n  function _crearTarjeta(string _nombre, uint _randomTarjeta) internal {\n    uint id = tarjetas.push(Tarjeta(_nombre, _randomTarjeta, 1, now)) - 1;\n    tarjetaAlPropietario[id] = msg.sender;\n    contadorTarjetaPropietario[msg.sender]++;\n    emit NuevaTarjeta(id, _nombre, _randomTarjeta);\n  }\n\n  function _generaValorRandomTarjeta (string _str) private view returns (uint) {\n    uint rand = uint(keccak256(_str));\n    return rand % modulo;\n  }\n\n  function _crearTarjetaAleatorio(string _nombre) public {\n    require(contadorTarjetaPropietario[msg.sender] == 0);\n    uint randValor = _generaValorRandomTarjeta(_nombre);\n    randValor = randValor - randValor % 100;\n    _crearTarjeta(_nombre, randValor);\n  }\n}",
  "sourcePath": "/home/jacg/Escritorio/BlockChain/coleccion-tarjetas/coleccion-tarjetas/contracts/generartarjeta.sol",
  "compiler": {
    "name": "solc",
    "version": "0.4.21+commit.dfe3193c.Emscripten.clang"
  },
  "schemaVersion": "2.0.0",
  "updatedAt": "2018-04-29T15:00:35.912Z"
}