{
  "contractName": "GenerarAlbum",
  "abi": [
    {
      "constant": true,
      "inputs": [
        {
          "name": "",
          "type": "uint256"
        }
      ],
      "name": "albumAlPropietario",
      "outputs": [
        {
          "name": "",
          "type": "address"
        }
      ],
      "payable": false,
      "stateMutability": "view",
      "type": "function"
    },
    {
      "constant": true,
      "inputs": [],
      "name": "owner",
      "outputs": [
        {
          "name": "",
          "type": "address"
        }
      ],
      "payable": false,
      "stateMutability": "view",
      "type": "function"
    },
    {
      "constant": true,
      "inputs": [
        {
          "name": "",
          "type": "uint256"
        }
      ],
      "name": "albumes",
      "outputs": [
        {
          "name": "nombre",
          "type": "string"
        },
        {
          "name": "randomAlbum",
          "type": "uint256"
        },
        {
          "name": "nivelAlbum",
          "type": "uint32"
        },
        {
          "name": "fechaEmision",
          "type": "uint256"
        }
      ],
      "payable": false,
      "stateMutability": "view",
      "type": "function"
    },
    {
      "constant": false,
      "inputs": [
        {
          "name": "newOwner",
          "type": "address"
        }
      ],
      "name": "transferOwnership",
      "outputs": [],
      "payable": false,
      "stateMutability": "nonpayable",
      "type": "function"
    },
    {
      "anonymous": false,
      "inputs": [
        {
          "indexed": false,
          "name": "albumId",
          "type": "uint256"
        },
        {
          "indexed": false,
          "name": "nombre",
          "type": "string"
        },
        {
          "indexed": false,
          "name": "randomAlbum",
          "type": "uint256"
        }
      ],
      "name": "NuevoAlbum",
      "type": "event"
    },
    {
      "anonymous": false,
      "inputs": [
        {
          "indexed": true,
          "name": "previousOwner",
          "type": "address"
        },
        {
          "indexed": true,
          "name": "newOwner",
          "type": "address"
        }
      ],
      "name": "OwnershipTransferred",
      "type": "event"
    },
    {
      "constant": false,
      "inputs": [
        {
          "name": "_nombre",
          "type": "string"
        }
      ],
      "name": "_crearAlbumAleatorio",
      "outputs": [],
      "payable": false,
      "stateMutability": "nonpayable",
      "type": "function"
    }
  ],
  "bytecode": "0x60606040526010600155600154600a0a600255336000806101000a81548173ffffffffffffffffffffffffffffffffffffffff021916908373ffffffffffffffffffffffffffffffffffffffff1602179055506109b2806100616000396000f30060606040526004361061006d576000357c0100000000000000000000000000000000000000000000000000000000900463ffffffff1680630b8bfee8146100725780638da5cb5b146100d5578063bc7a22301461012a578063beec3a88146101e7578063f2fde38b14610244575b600080fd5b341561007d57600080fd5b610093600480803590602001909190505061027d565b604051808273ffffffffffffffffffffffffffffffffffffffff1673ffffffffffffffffffffffffffffffffffffffff16815260200191505060405180910390f35b34156100e057600080fd5b6100e86102b0565b604051808273ffffffffffffffffffffffffffffffffffffffff1673ffffffffffffffffffffffffffffffffffffffff16815260200191505060405180910390f35b341561013557600080fd5b61014b60048080359060200190919050506102d5565b60405180806020018581526020018463ffffffff1663ffffffff168152602001838152602001828103825286818151815260200191508051906020019080838360005b838110156101a957808201518184015260208101905061018e565b50505050905090810190601f1680156101d65780820380516001836020036101000a031916815260200191505b509550505050505060405180910390f35b34156101f257600080fd5b610242600480803590602001908201803590602001908080601f016020809104026020016040519081016040528093929190818152602001838380828437820191505050505050919050506103bc565b005b341561024f57600080fd5b61027b600480803573ffffffffffffffffffffffffffffffffffffffff16906020019091905050610435565b005b60046020528060005260406000206000915054906101000a900473ffffffffffffffffffffffffffffffffffffffff1681565b6000809054906101000a900473ffffffffffffffffffffffffffffffffffffffff1681565b6003818154811015156102e457fe5b9060005260206000209060040201600091509050806000018054600181600116156101000203166002900480601f0160208091040260200160405190810160405280929190818152602001828054600181600116156101000203166002900480156103905780601f1061036557610100808354040283529160200191610390565b820191906000526020600020905b81548152906001019060200180831161037357829003601f168201915b5050505050908060010154908060020160009054906101000a900463ffffffff16908060030154905084565b600080600560003373ffffffffffffffffffffffffffffffffffffffff1673ffffffffffffffffffffffffffffffffffffffff1681526020019081526020016000205414151561040b57600080fd5b6104148261058a565b905060648181151561042257fe5b0681039050610431828261060c565b5050565b6000809054906101000a900473ffffffffffffffffffffffffffffffffffffffff1673ffffffffffffffffffffffffffffffffffffffff163373ffffffffffffffffffffffffffffffffffffffff1614151561049057600080fd5b600073ffffffffffffffffffffffffffffffffffffffff168173ffffffffffffffffffffffffffffffffffffffff16141515156104cc57600080fd5b8073ffffffffffffffffffffffffffffffffffffffff166000809054906101000a900473ffffffffffffffffffffffffffffffffffffffff1673ffffffffffffffffffffffffffffffffffffffff167f8be0079c531659141344cd1fd0a4f28419497f9722a3daafe3b4186f6b6457e060405160405180910390a3806000806101000a81548173ffffffffffffffffffffffffffffffffffffffff021916908373ffffffffffffffffffffffffffffffffffffffff16021790555050565b600080826040518082805190602001908083835b6020831015156105c3578051825260208201915060208101905060208303925061059e565b6001836020036101000a03801982511681845116808217855250505050505090500191505060405180910390206001900490506002548181151561060357fe5b06915050919050565b60006001600380548060010182816106249190610811565b91600052602060002090600402016000608060405190810160405280888152602001878152602001600163ffffffff168152602001428152509091909150600082015181600001908051906020019061067e929190610843565b506020820151816001015560408201518160020160006101000a81548163ffffffff021916908363ffffffff160217905550606082015181600301555050039050336004600083815260200190815260200160002060006101000a81548173ffffffffffffffffffffffffffffffffffffffff021916908373ffffffffffffffffffffffffffffffffffffffff160217905550600560003373ffffffffffffffffffffffffffffffffffffffff1673ffffffffffffffffffffffffffffffffffffffff168152602001908152602001600020600081548092919060010191905055507ffaaad2afe7e449b8027cfe543bc62c46e132059448a8af389ef1f814070a1e758184846040518084815260200180602001838152602001828103825284818151815260200191508051906020019080838360005b838110156107d05780820151818401526020810190506107b5565b50505050905090810190601f1680156107fd5780820380516001836020036101000a031916815260200191505b5094505050505060405180910390a1505050565b81548183558181151161083e5760040281600402836000526020600020918201910161083d91906108c3565b5b505050565b828054600181600116156101000203166002900490600052602060002090601f016020900481019282601f1061088457805160ff19168380011785556108b2565b828001600101855582156108b2579182015b828111156108b1578251825591602001919060010190610896565b5b5090506108bf9190610919565b5090565b61091691905b8082111561091257600080820160006108e2919061093e565b60018201600090556002820160006101000a81549063ffffffff02191690556003820160009055506004016108c9565b5090565b90565b61093b91905b8082111561093757600081600090555060010161091f565b5090565b90565b50805460018160011615610100020316600290046000825580601f106109645750610983565b601f0160209004906000526020600020908101906109829190610919565b5b505600a165627a7a72305820b90d0b87c0805356cc5df7229d06880eb892f1d36b0fcb0bec68a4812273d4c10029",
  "source": "pragma solidity ^0.4.19;\n\nimport \"./ownable.sol\";\nimport \"./safemath.sol\";\n\ncontract GenerarAlbum is Ownable {\n\n// Usaremos la librería SafeMath\n  using SafeMath for uint256;\n\n  event NuevoAlbum(uint albumId, string nombre, uint randomAlbum);\n\n// Estructura de un album. \n  uint digitosRandom = 16;\n  uint modulo = 10 ** digitosRandom;\n  struct Album {\n    string nombre;\n    uint randomAlbum;\n    uint32 nivelAlbum;\n    //address direccionAlbum;\n    uint fechaEmision;\n  }\n\n  Album[] public albumes;\n\n  mapping (uint => address) public albumAlPropietario;\n  mapping (address => uint) contadorAlbumPropietario;\n\n  function _crearAlbum(string _nombre, uint _randomAlbum) internal {\n    uint id = albumes.push(Album(_nombre, _randomAlbum, 1, now)) - 1;\n    albumAlPropietario[id] = msg.sender;\n    contadorAlbumPropietario[msg.sender]++;\n    emit NuevoAlbum(id, _nombre, _randomAlbum);\n  }\n\n  function _generaValorRandomAlbum (string _str) private view returns (uint) {\n    uint rand = uint(keccak256(_str));\n    return rand % modulo;\n  }\n\n  function _crearAlbumAleatorio(string _nombre) public {\n    require(contadorAlbumPropietario[msg.sender] == 0);\n    uint randValor = _generaValorRandomAlbum(_nombre);\n    randValor = randValor - randValor % 100;\n    _crearAlbum(_nombre, randValor);\n  }\n}",
  "sourcePath": "/home/jacg/Escritorio/BlockChain/coleccion-tarjetas/coleccion-tarjetas/contracts/generaralbum.sol",
  "compiler": {
    "name": "solc",
    "version": "0.4.21+commit.dfe3193c.Emscripten.clang"
  },
  "schemaVersion": "2.0.0",
  "updatedAt": "2018-04-29T03:53:18.029Z"
}