{
  "contractName": "Pertenencia",
  "abi": [
    {
      "constant": true,
      "inputs": [],
      "name": "propietario",
      "outputs": [
        {
          "name": "",
          "type": "address"
        }
      ],
      "payable": false,
      "stateMutability": "view",
      "type": "function"
    },
    {
      "anonymous": false,
      "inputs": [
        {
          "indexed": true,
          "name": "anteriorPropietario",
          "type": "address"
        },
        {
          "indexed": true,
          "name": "nuevoPropietario",
          "type": "address"
        }
      ],
      "name": "PertenenciaTransferida",
      "type": "event"
    },
    {
      "constant": false,
      "inputs": [],
      "name": "Poseible",
      "outputs": [],
      "payable": false,
      "stateMutability": "nonpayable",
      "type": "function"
    },
    {
      "constant": false,
      "inputs": [
        {
          "name": "nuevoPropietario",
          "type": "address"
        }
      ],
      "name": "transferirPropiedad",
      "outputs": [],
      "payable": false,
      "stateMutability": "nonpayable",
      "type": "function"
    }
  ],
  "bytecode": "0x608060405234801561001057600080fd5b506102f4806100206000396000f300608060405260043610610056576000357c0100000000000000000000000000000000000000000000000000000000900463ffffffff1680629a458a1461005b5780633c4f81cd1461009e57806384e7d41d146100f5575b600080fd5b34801561006757600080fd5b5061009c600480360381019080803573ffffffffffffffffffffffffffffffffffffffff16906020019092919050505061010c565b005b3480156100aa57600080fd5b506100b3610261565b604051808273ffffffffffffffffffffffffffffffffffffffff1673ffffffffffffffffffffffffffffffffffffffff16815260200191505060405180910390f35b34801561010157600080fd5b5061010a610286565b005b6000809054906101000a900473ffffffffffffffffffffffffffffffffffffffff1673ffffffffffffffffffffffffffffffffffffffff163373ffffffffffffffffffffffffffffffffffffffff1614151561016757600080fd5b600073ffffffffffffffffffffffffffffffffffffffff168173ffffffffffffffffffffffffffffffffffffffff16141515156101a357600080fd5b8073ffffffffffffffffffffffffffffffffffffffff166000809054906101000a900473ffffffffffffffffffffffffffffffffffffffff1673ffffffffffffffffffffffffffffffffffffffff167f359e263445ee3899ed3f945e6bd38aaf60ccd68c44eacfb5568fdc5d4db0f7e360405160405180910390a3806000806101000a81548173ffffffffffffffffffffffffffffffffffffffff021916908373ffffffffffffffffffffffffffffffffffffffff16021790555050565b6000809054906101000a900473ffffffffffffffffffffffffffffffffffffffff1681565b336000806101000a81548173ffffffffffffffffffffffffffffffffffffffff021916908373ffffffffffffffffffffffffffffffffffffffff1602179055505600a165627a7a72305820d82a6b5b2661968185869607e525b4e0aeeb4025d1949d58cd62c7c4a35ec9010029",
  "source": "pragma solidity ^0.4.24;\n/**\n * @title Pertenencia\n * @author Jose Angel Contreras\n * @dev El contrato Pertenencia posee una direccion del usuario, posee las funciones de autorizacion\n * basicas, que simplifica la implementacion de los permisos de usuario.\n */\ncontract Pertenencia {\n  address public propietario;\n\n  event PertenenciaTransferida(address indexed anteriorPropietario, address indexed nuevoPropietario);\n\n  /**\n   * @dev el constructor \"poseible\" define al propietario original del contrato como la cuenta del emisor\n   * account.\n   */\n  function Poseible() public {\n    propietario = msg.sender;\n  }\n\n\n  /**\n   * @dev Se asegura que la funcion sea llamada solo por el propietario.\n   */\n  modifier soloPropietario() {\n    require(msg.sender == propietario);\n    _;\n  }\n\n\n  /**\n   * @dev Permite al propietario actual transferir el control del contrato al nuevoPropietario.\n   * @param nuevoPropietario  Direccion a la cual se transfiere la propiedad.\n   */\n  function transferirPropiedad(address nuevoPropietario) public soloPropietario {\n    require(nuevoPropietario != address(0));\n    emit PertenenciaTransferida(propietario, nuevoPropietario);\n    propietario = nuevoPropietario;\n  }\n\n}\n",
  "sourcePath": "/home/jacg/Github-tanogedler/coleccion-tarjetas/contracts/pertenencia.sol",
  "compiler": {
    "name": "solc",
    "version": "0.4.24+commit.e67f0147.Emscripten.clang"
  },
  "schemaVersion": "2.0.1",
  "updatedAt": "2018-08-28T12:40:51.308Z"
}