{
  "contractName": "Pertenencia",
  "abi": [
    {
      "constant": true,
      "inputs": [],
      "name": "propietario",
      "outputs": [
        {
          "name": "",
          "type": "address"
        }
      ],
      "payable": false,
      "stateMutability": "view",
      "type": "function"
    },
    {
      "anonymous": false,
      "inputs": [
        {
          "indexed": true,
          "name": "anteriorPropietario",
          "type": "address"
        },
        {
          "indexed": true,
          "name": "nuevoPropietario",
          "type": "address"
        }
      ],
      "name": "PertenenciaTransferida",
      "type": "event"
    },
    {
      "constant": false,
      "inputs": [],
      "name": "Poseible",
      "outputs": [],
      "payable": false,
      "stateMutability": "nonpayable",
      "type": "function"
    },
    {
      "constant": false,
      "inputs": [
        {
          "name": "nuevoPropietario",
          "type": "address"
        }
      ],
      "name": "transferirPropiedad",
      "outputs": [],
      "payable": false,
      "stateMutability": "nonpayable",
      "type": "function"
    }
  ],
  "bytecode": "0x6060604052341561000f57600080fd5b6102e68061001e6000396000f300606060405260043610610056576000357c0100000000000000000000000000000000000000000000000000000000900463ffffffff1680629a458a1461005b5780633c4f81cd1461009457806384e7d41d146100e9575b600080fd5b341561006657600080fd5b610092600480803573ffffffffffffffffffffffffffffffffffffffff169060200190919050506100fe565b005b341561009f57600080fd5b6100a7610253565b604051808273ffffffffffffffffffffffffffffffffffffffff1673ffffffffffffffffffffffffffffffffffffffff16815260200191505060405180910390f35b34156100f457600080fd5b6100fc610278565b005b6000809054906101000a900473ffffffffffffffffffffffffffffffffffffffff1673ffffffffffffffffffffffffffffffffffffffff163373ffffffffffffffffffffffffffffffffffffffff1614151561015957600080fd5b600073ffffffffffffffffffffffffffffffffffffffff168173ffffffffffffffffffffffffffffffffffffffff161415151561019557600080fd5b8073ffffffffffffffffffffffffffffffffffffffff166000809054906101000a900473ffffffffffffffffffffffffffffffffffffffff1673ffffffffffffffffffffffffffffffffffffffff167f359e263445ee3899ed3f945e6bd38aaf60ccd68c44eacfb5568fdc5d4db0f7e360405160405180910390a3806000806101000a81548173ffffffffffffffffffffffffffffffffffffffff021916908373ffffffffffffffffffffffffffffffffffffffff16021790555050565b6000809054906101000a900473ffffffffffffffffffffffffffffffffffffffff1681565b336000806101000a81548173ffffffffffffffffffffffffffffffffffffffff021916908373ffffffffffffffffffffffffffffffffffffffff1602179055505600a165627a7a723058209ec9ae4a24b459c7ac022be94bb45df28240b4c26757fa8c24a33695a67e303d0029",
  "source": "pragma solidity ^0.4.19;\n/**\n * @title Pertenencia\n * @author Jose Angel Contreras\n * @dev El contrato Pertenencia posee una direccion del usuario, posee las funciones de autorizacion\n * basicas, que simplifica la implementacion de los permisos de usuario.\n */\ncontract Pertenencia {\n  address public propietario;\n\n  event PertenenciaTransferida(address indexed anteriorPropietario, address indexed nuevoPropietario);\n\n  /**\n   * @dev el constructor \"poseible\" define al propietario original del contrato como la cuenta del emisor\n   * account.\n   */\n  function Poseible() public {\n    propietario = msg.sender;\n  }\n\n\n  /**\n   * @dev Se asegura que la funcion sea llamada solo por el propietario.\n   */\n  modifier soloPropietario() {\n    require(msg.sender == propietario);\n    _;\n  }\n\n\n  /**\n   * @dev Permite al propietario actual transferir el control del contrato al nuevoPropietario.\n   * @param nuevoPropietario  Direccion a la cual se transfiere la propiedad.\n   */\n  function transferirPropiedad(address nuevoPropietario) public soloPropietario {\n    require(nuevoPropietario != address(0));\n    PertenenciaTransferida(propietario, nuevoPropietario);\n    propietario = nuevoPropietario;\n  }\n\n}\n",
  "sourcePath": "/home/jacg/Escritorio/BlockChain/coleccion-tarjetas/coleccion-tarjetas/contracts/pertenencia.sol",
  "compiler": {
    "name": "solc",
    "version": "0.4.21+commit.dfe3193c.Emscripten.clang"
  },
  "schemaVersion": "2.0.0",
  "updatedAt": "2018-04-20T12:08:23.674Z"
}